:100000000C94D2030C94EF030C94EF030C949229FC
:100010000C94F6320C94EF030C94EF030C94EF0362
:100020000C94EF030C94EF030C94EF030C946C1DF1
:100030000C94EF030C94EF030C94EF030C94EF0378
:100040000C9419160C94EF030C94BB130C947613B8
:100050000C94EF030C94EF030C94EF030C94EF0358
:100060000C94EF030C94EF031A2121212421272162
:100070002C2136214221B721B721B7214C214F2114
:1000800058216121B721B721B721B721B721B72165
:100090006B2179218721912194219D21A621AB21DA
:1000A000084AD73B3BCE016E84BCBFFDC12F3D6CDF
:1000B00074319ABD56833DDA3D00C77F11BED9E445
:1000C000BB4C3E916BAAAABE000000803F05A84C25
:1000D000CDB2D44EB93836A9020C50B991868808F1
:1000E0003CA6AAAA2ABE000000803F3E0D0A002CB2
:1000F00052583A002C4275663A002C002C57506F2B
:10010000733A002C002C4D506F733A003C446F6FD3
:1001100072003C436865636B003C416C61726D002A
:100120003C486F6D65003C486F6C64003C52756ED6
:10013000003C49646C65005D0D0A005B302E396936
:100140002E32303135303331353A000D0A003D0062
:10015000244E005D0D0A002053002046002054006C
:10016000204D3800204D3900204D3500204D340001
:10017000204D3300204D3200204D3100204D300005
:1001800020473934002047393300204739310020D7
:1001900047393000204732300020473231002047B5
:1001A00031390020473138002047313700204700DF
:1001B0004733382E00473830004733004732004776
:1001C00031004730005B005D0D0A005B544C4F3A34
:1001D000005D0D0A002C005B4739323A005D0D0AC4
:1001E000002C003A003330003238005B47005D0DD0
:1001F0000A003A002C005B5052423A00290D0A00D6
:10020000206D61782074726176656C2C206D6D00B4
:1002100020616363656C2C206D6D2F7365635E32A6
:1002200000206D617820726174652C206D6D2F6DDA
:10023000696E002C20737465702F6D6D007A0079E3
:100240000078002028003D0024002028686F6D6998
:100250006E672070756C6C2D6F66662C206D6D2935
:100260000D0A002028686F6D696E67206465626FF3
:10027000756E63652C206D736563290D0A24323712
:100280003D002028686F6D696E67207365656B2C73
:10029000206D6D2F6D696E290D0A2432363D0020C8
:1002A00028686F6D696E6720666565642C206D6DCA
:1002B0002F6D696E290D0A2432353D00290D0A245F
:1002C00032343D002028686F6D696E672064697262
:1002D00020696E76657274206D61736B3A00202818
:1002E000686F6D696E67206379636C652C20626F3F
:1002F0006F6C290D0A2432333D0020286861726436
:10030000206C696D6974732C20626F6F6C290D0A03
:100310002432323D002028736F6674206C696D6949
:1003200074732C20626F6F6C290D0A2432313D00EA
:1003300020287265706F727420696E636865732C13
:1003400020626F6F6C290D0A2432303D0020286135
:10035000726320746F6C6572616E63652C206D6DC5
:10036000290D0A2431333D0020286A756E637469B3
:100370006F6E20646576696174696F6E2C206D6D97
:10038000290D0A2431323D00290D0A2431313D0066
:100390002028737461747573207265706F72742095
:1003A0006D61736B3A00202870726F62652070690E
:1003B0006E20696E766572742C20626F6F6C290DE9
:1003C0000A2431303D0020286C696D697420706901
:1003D0006E7320696E766572742C20626F6F6C2963
:1003E0000D0A24363D0020287374657020656E6107
:1003F000626C6520696E766572742C20626F6F6C1A
:10040000290D0A24353D00290D0A24343D002028F9
:1004100064697220706F727420696E7665727420E0
:100420006D61736B3A00290D0A24333D0020287357
:1004300074657020706F727420696E7665727420B6
:100440006D61736B3A002028737465702069646C69
:10045000652064656C61792C206D736563290D0AD4
:1004600024323D002028737465702070756C7365AC
:100470002C2075736563290D0A24313D0024303D1D
:10048000002424202876696577204772626C2073E7
:10049000657474696E6773290D0A242320287669B0
:1004A0006577202320706172616D657465727329B0
:1004B0000D0A24472028766965772070617273657C
:1004C00072207374617465290D0A244920287669A5
:1004D0006577206275696C6420696E666F290D0A04
:1004E000244E202876696577207374617274757064
:1004F00020626C6F636B73290D0A24783D76616C02
:100500007565202873617665204772626C2073657B
:100510007474696E67290D0A244E783D6C696E65A6
:10052000202873617665207374617274757020621F
:100530006C6F636B290D0A24432028636865636B25
:100540002067636F6465206D6F6465290D0A245808
:1005500020286B696C6C20616C61726D206C6F631C
:100560006B290D0A2448202872756E20686F6D690A
:100570006E67206379636C65290D0A7E2028637994
:10058000636C65207374617274290D0A21202866DA
:1005900065656420686F6C64290D0A3F20286375C7
:1005A0007272656E7420737461747573290D0A63B9
:1005B00074726C2D7820287265736574204772629E
:1005C0006C290D0A000D0A4772626C20302E3969C1
:1005D000205B27242720666F722068656C705D0D94
:1005E0000A005D0D0A00436865636B20446F6F72FB
:1005F0000044697361626C656400456E61626C659C
:10060000640043617574696F6E3A20556E6C6F6358
:100610006B656400272448277C2724582720746FA3
:1006200020756E6C6F636B00526573657420746F18
:1006300020636F6E74696E7565005B000D0A00487B
:100640006F6D696E67206661696C0050726F6265DC
:10065000206661696C0041626F7274206475726912
:100660006E67206379636C6500536F6674206C69F4
:100670006D69740048617264206C696D6974004131
:100680004C41524D3A20000D0A00496E76616C696A
:10069000642067636F64652049443A00556E646561
:1006A00066696E65642066656564207261746500C4
:1006B000556E737570706F7274656420636F6D6DC5
:1006C000616E64004D6F64616C2067726F7570209D
:1006D00076696F6C6174696F6E004C696E65206F2E
:1006E000766572666C6F7700486F6D696E67206E15
:1006F0006F7420656E61626C656400416C61726D3F
:10070000206C6F636B004E6F742069646C650045EC
:100710004550524F4D2072656164206661696C2EB0
:10072000205573696E672064656661756C7473002B
:1007300056616C7565203C203320757365630053EA
:10074000657474696E672064697361626C656400C6
:1007500056616C7565203C203000496E76616C698D
:10076000642073746174656D656E74004261642009
:100770006E756D62657220666F726D61740045788A
:1007800070656374656420636F6D6D616E64206C69
:100790006574746572006572726F723A20006F6BD7
:1007A0000D0A000011241FBECFEFD8E0DEBFCDBF81
:1007B00011E0A0E0B1E0E4E2F2E702C005900D92A2
:1007C000A030B107D9F716E0A0E0B1E001C01D925A
:1007D000AD3CB107E1F70E94F1030C9410390C9481
:1007E00000000E9443130E94B7220E942F160E940D
:1007F000943280E2E7E2F5E0DF011D928A95E9F7A5
:1008000081E08093270578948091BC0684FF03C023
:1008100081E0809328050E94B6130E9485120E94F1
:1008200099120E941E130E940F290E946B2D0E9494
:1008300013280E943C1D0E9471230E947E12109278
:10084000270510922A0510922B05109229050E9467
:100850006D15E1CF80912A0584FD27C08FB7F894EC
:1008600090912A05906190932A058FBF0E94A11252
:100870000E94211390912805892F8C7021F480917A
:100880002905813091F4943031F49FB7F894809128
:100890002B05806205C09FB7F89480912B05886076
:1008A00080932B059FBF0E94101D08950E942D2943
:1008B00083E00E94C6290E94251480912705882381
:1008C00021F40E947E120E940F290895EF92FF9258
:1008D0000F931F93CF93DF937B018C0180912805A9
:1008E000823009F447C0C801B70120E030E040EA97
:1008F00051E40E94E9370E947D360E941436EB01D4
:100900000E945615C801B70120E030E04AE754E4E0
:100910000E94E9377B018C0182E390E0C89FB0011F
:10092000C99F700DD89F700D112480E090E00E9447
:1009300040369B01AC01C801B7010E94C6340E9439
:100940007D360E941436DC01CB010E94DC2800E9D0
:1009500011E00EC00E94251480912705882351F4D0
:1009600084EF91E0F8013197F1F70197D9F72197DA
:10097000209781F7DF91CF911F910F91FF90EF901A
:100980000895DF92EF92FF920F931F93CF93DF931F
:10099000EC017A018B01D22E8091BC0685FF03C049
:1009A000CE010E94382980912805823099F00E945A
:1009B000251480912705882369F40E9467238823E2
:1009C00019F00E941C14F3CFCE01B801A7012D2D00
:1009D0000E94F724DF91CF911F910F91FF90EF902C
:1009E000DF900895AF92BF92CF92DF92EF920F9374
:1009F0001F93CF93DF93EC015A016B01122F80916B
:100A00002805823009F466C00E94561510924605EA
:100A1000802F0E946E2D0E94812D882351F09FB758
:100A2000F89480912B05806180932B059FBF0E94D5
:100A3000251480912705882309F04CC0CE01B6010A
:100A4000A501212F0E94C10481E0809339059FB741
:100A5000F89480912A05826080932A059FBF0E94A6
:100A60002514809127058823A9F5809128058823DE
:100A7000B1F7809139058130A9F4EE2051F0EAE315
:100A8000F5E0DF011E978CE00D9001928150E1F7B7
:100A90000CC09FB7F89480912B05806180932B0543
:100AA0009FBF03C081E080934605109239050E94E4
:100AB000251480912705882369F40E943C1D0E941B
:100AC00013280E947123CE016CE275E00E94C332AC
:100AD0000E942B30DF91CF911F910F91EF90DF900B
:100AE000CF90BF90AF9008952F923F924F925F9218
:100AF0006F927F928F929F92AF92BF92CF92DF922E
:100B0000EF92FF920F931F93DF93CF93CDB7DEB792
:100B1000EF970FB6F894DEBF0FBECDBF9CAB8BAB8B
:100B20007EAB6DAB3A010FAB18AF29AF3AAFCBAE8E
:100B3000DCAEEDAEFEAEAFAE9924880C991C880CED
:100B4000991C880D991D9AAB89AB9A01280D391D06
:100B500038AB2FA7D901AD90BD90CD90DC90C601E8
:100B6000B501E9A9FAA920813181428153810E940E
:100B7000C7346DA37EA38FA398A765966FAD6597C5
:100B8000462E5524440C551C440C551C2BA93CA93D
:100B9000240D351D3EA72DA7C301840D951D9CA7CF
:100BA0008BA7DC01ED90FD900D911C91C801B70160
:100BB000F90120813181428153810E94C73469A3A8
:100BC0007AA38BA39CA3D601C501B0588D8F9E8FAD
:100BD000AF8FB8A3D801C701B058898F9A8FAB8F58
:100BE000BC8FADA9BEA98A0E9B1EF40160817181E4
:100BF000828193812DA13EA14FA158A50E94C634A8
:100C00003B014C012DA93EA9420E531ED2016D910C
:100C10007D918D919C9129A13AA14BA15CA10E944B
:100C2000C6345B016C016D8D7E8D8F8D98A1A60100
:100C300095010E94E9377B018C01698D7A8D8B8D3E
:100C40009C8DA40193010E94E9379B01AC01C8016E
:100C5000B7010E94C6341B012C016D8D7E8D8F8DD6
:100C600098A1A40193010E94E9377B018C01698D51
:100C70007A8D8B8D9C8DA60195010E94E9379B0191
:100C8000AC01C801B7010E94C7349B01AC01C2018D
:100C9000B1010E943A355B016C0167968FAD679791
:100CA000882399F0C601B50120E030E040E050E033
:100CB0000E94AE378823ECF0C601B5012BED3FE072
:100CC00049EC50E40E94C63412C0C601B50120E0D0
:100CD00030E040E050E00E94A035181654F0C60104
:100CE000B5012BED3FE049EC50E40E94C7345B01B5
:100CF0006C01E090B806F090B9060091BA06109128
:100D0000BB066FA978AD89AD9AAD9B01AC010E947D
:100D1000C734A80197010E94C6349B01AC01C801E9
:100D2000B7010E94E9370E9476387B018C01C60129
:100D3000B50120E030E040E05FE30E94E9372FA9F1
:100D400038AD49AD5AAD0E94E9379F77A8019701A8
:100D50000E94A7350E947D360E941436788F6F8BD3
:100D60006115710509F487C1BFADBB2381F080E037
:100D700090E00E9440369B01AC016BAD7CAD8DAD27
:100D80009EAD0E94E9376BAF7CAF8DAF9EAF2F89D0
:100D9000388DB90180E090E00E9440367B018C01E3
:100DA000C601B501A80197010E94A7356B8B7C8B0A
:100DB0008D8B9E8B6696EFAD6697F0E0EE0FFF1F72
:100DC000EE0FFF1F8BA99CA98E0F9F1F9AA789A7C3
:100DD000ADA9BEA9EA0FFB1F608171818281938159
:100DE000E9A5FAA520813181428153810E94C63450
:100DF000A80197010E94A7356F87788B898B9A8B02
:100E00006B897C898D899E899B01AC010E94E937A1
:100E10009B01AC0160E070E080E090E40E94C63489
:100E20005B016C016B897C898D899E892BEA3AEA8A
:100E30004AE25EE30E94E9377B018C01C601B501FD
:100E400020E030E040E850E40E94C7349B01AC0150
:100E5000C801B7010E94E9376B877C878D879E8721
:100E6000C601B50120E030E040E05FE30E94E937D1
:100E700069837A838B839C8321E030E03E832D83DA
:100E80009924F1C03BE0391508F446C06D8D7E8D84
:100E90008F8D98A12B853C854D855E850E94E93715
:100EA0007B018C01698D7A8D8B8D9C8D29813A8196
:100EB0004B815C810E94E9379B01AC01C801B701FD
:100EC0000E94C7347B018C016D8D7E8D8F8D98A122
:100ED00029813A814B815C810E94E9375B016C0179
:100EE000698D7A8D8B8D9C8D2B853C854D855E859E
:100EF0000E94E9379B01AC01C601B5010E94C634CE
:100F00006D8F7E8F8F8F98A39394C701D801898F9F
:100F10009A8FAB8FBC8F61C0AD81BE81BD0180E077
:100F200090E00E9440362B893C894D895E890E9461
:100F3000E9377B018C01C8010E94A4356F83788753
:100F400089879A87B701C8010E946C383B014C0120
:100F5000EFA5F8A9E080F1800281138117FB1095BD
:100F600017F91095ABA5BCA52D903D904D905C90C8
:100F7000C801B7012F81388549855A850E94E93714
:100F80005B016C01C201B101A40193010E94E93728
:100F90009B01AC01C601B5010E94C7346D8F7E8FE5
:100FA0008F8F98A3C801B701A40193010E94E9376C
:100FB0007B018C01C201B1012F81388549855A8599
:100FC0000E94E9379B01AC01C801B7010E94C634F9
:100FD000698F7A8F8B8F9C8F99246DA17EA18FA1B1
:100FE00098A52D8D3E8D4F8D58A10E94C734E9A93B
:100FF000FAA9608371838283938369A17AA18BA10B
:101000009CA1298D3A8D4B8D5C8D0E94C734ADA576
:10101000BEA56D937D938D939C931397E9A5FAA537
:1010200060817181828193812F85388949895A89AC
:101030000E94C734A9A5BAA56D937D938D939C9307
:1010400013978BA99CA94BAD5CAD6DAD7EAD2FAD5B
:101050000E94C104809127058823B1F4ED81FE81AF
:101060003196FE83ED832D813E818F89988D2817DF
:10107000390708F407CF8DA99EA94BAD5CAD6DADC6
:101080007EAD2FAD0E94C104EF960FB6F894DEBF7F
:101090000FBECDBFCF91DF911F910F91FF90EF90C9
:1010A000DF90CF90BF90AF909F908F907F906F9088
:1010B0005F904F903F902F9008952F923F924F92C4
:1010C0005F926F927F928F929F92AF92BF92CF92D8
:1010D000DF92EF92FF920F931F93DF93CF93CDB7E1
:1010E000DEB7A8970FB6F894DEBF0FBECDBF1C01C8
:1010F000E6E8F5E089E3DF011D928A95E9F731968C
:10110000A7E4B5E08AE00D9001928150E1F71982E1
:10111000AA24BB241CA2772466241F8E1E8E61E0A5
:10112000462E512C9924939452E0852EA6C2802FEE
:1011300081548A3118F081E00C945F129F5F99838B
:10114000C101BE016F5F7F4FAE014E5F5F4F0E94D6
:101150002428882319F482E00C945F12CA80DB8073
:10116000EC80FD80C701B6010E94C3380E9414368E
:10117000162F70E0882777FD8095982F0E944236C1
:101180009B01AC01C701B6010E94C63420E030E0EB
:1011900048EC52E40E94E9370E944C380E94143611
:1011A0009B01073421F00D3409F08DC141C1183283
:1011B00009F446C0193200F5143170F4113108F009
:1011C000E2C0143009F448C0143008F494C01A3056
:1011D00011F00C944E1236C01C31A1F11D3128F4CF
:1011E000163110F00C944E12FBC01E3159F116321C
:1011F00011F00C944E127FC0103509F483C01135E4
:1012000088F4153349F1163340F41B3209F4F1C068
:10121000113311F00C944E12ECC01C3310F00C94EE
:101220004E12FEC01C3571F01D3528F41A3510F42D
:101230000C944E12B8C01F3510F00C944E12C7C05B
:1012400087E0F2C02115310539F4BCA1BB2311F0B0
:101250000C944C12E1E0ECA31C31A9F01D3128F4F0
:10126000143051F01A3069F40AC0153371F11C358D
:1012700081F11E3131F418C09092860502C080922F
:10128000860580E0D1C02115310531F02A303105C5
:1012900011F00C944E1204C0F3E0F093860529C0BF
:1012A00024E02093860525C02115310531F02A3030
:1012B000310511F00C944E1204C085E08093860530
:1012C00018C096E09093860514C0A7E0A093860509
:1012D000D8CF2115310531F02A30310511F00C94A9
:1012E0004E1204C0B8E0B093860503C0E9E0E09375
:1012F000860580E0D8C0FCA1FF2311F00C944C12AD
:1013000082E08CA3123089F0133028F4112351F0BD
:10131000113069F40AC0163261F0103581F11330D2
:1013200031F403C01092870502C01093870581E055
:101330007BC02E313105B1F02F31310530F424312D
:10134000310511F00C944E1209C02832310571F0AC
:101350002233310511F00C944E120CC094E090939E
:1013600087050BC0A5E0A093870507C0B6E0B09342
:10137000870503C0E7E0E093870581E094C0F8E0CB
:10138000F0938705D4CF123139F0133149F0113180
:1013900029F410928B0502C090928B0582E044C024
:1013A00080928B05FBCF6115710551F41A3521F43C
:1013B00010928A050C947B1290928A050C947B12F1
:1013C0006A30710511F40C9478120C944E121D358C
:1013D00019F49092880502C01092880585E024C017
:1013E000143119F49092890502C01092890586E0A3
:1013F0001BC08CA1882311F00C944C12113329F4DA
:1014000010928C0593E09CA309C02A30310511F09D
:101410000C944E1290928C05A3E0ACA388E043C0DC
:10142000165310938D0589E0232BE9F10C9450128B
:10143000672B11F00C945012163018F41330C0F4CE
:101440000AC0183010F40C944E121A3008F11E31F4
:1014500011F00C944E12123041F01E3131F0112374
:1014600011F490928E058AE01EC080928E05FBCF0B
:10147000143039F0153041F0133041F4909290055A
:1014800005C08092900502C0109290058BE00BC0C1
:10149000183019F0193031F403C080928F0502C062
:1014A00010928F058CE0920102C0220F331F8A95A3
:1014B000E2F7C9018A219B21892B11F00C94521269
:1014C000A22AB32ADAC0003509F46CC001359CF4B5
:1014D0000A34F1F10B3434F4063421F1093409F003
:1014E000DDC72AC00C3409F44BC00C34ECF10E34C7
:1014F00009F0D4C749C0043599F005353CF40235EC
:1015000009F45AC0033509F0C9C760C0093509F4A8
:1015100073C00A3509F47CC0083509F0BFC760C044
:1015200029E081C0C0929105D0929205E092930586
:10153000F092940520E077C0C0929505D092960570
:10154000E0929705F0929805B1E06B2A21E06BC01C
:10155000C0929905D0929A05E0929B05F0929C0565
:10156000E2E06E2A22E05FC0C0929D05D0929E0507
:10157000E0929F05F092A005F4E06F2A23E053C0AB
:101580001093A10524E04FC0C701B6010E940F3699
:101590006093A2057093A3058093A4059093A5057D
:1015A00025E041C0C092A605D092A705E092A8050B
:1015B000F092A90526E037C0C092AA05D092AB05EB
:1015C000E092AC05F092AD0527E02DC0C092AE05CB
:1015D000D092AF05E092B005F092B10528E023C0AB
:1015E000C092B305D092B405E092B505F092B6056D
:1015F00021E0722A2AE017C0C092B705D092B80540
:10160000E092B905F092BA0582E0782A2BE00BC08F
:10161000C092BB05D092BC05E092BD05F092BE051C
:1016200094E0792A2CE08201022E02C0000F111FE3
:101630000A94E2F78E8D9F8D80239123892B11F0E0
:1016400089E13DC781E693E002C0959587952A958B
:10165000E2F780FF0CC0C701B60120E030E040E0B7
:1016600050E00E94A035882314F484E028C7AE8D92
:10167000BF8DA02BB12BBF8FAE8F9981F101E90FE8
:10168000F11D0081002309F052CD772029F0BCA183
:10169000BB2311F4E2E0ECA3FE8DF5FF0FC08091B7
:1016A000A2059091A305A091A405B091A50580582D
:1016B0009649A849B04014F08BE101C78091880594
:1016C000813039F48CA18230B1F59E8D90FD33C00C
:1016D000EBC680914805882371F5AE8DA0FF1BC035
:1016E00080918905813039F560919105709192055D
:1016F000809193059091940523E333E34BEC51E4FF
:101700000E94E93760939105709392058093930549
:101710009093940510C08091550590915605A09125
:101720005705B09158058093910590939205A09329
:101730009305B0939405EE8DFF8DF0FD10C0809160
:10174000510590915205A0915305B0915405809395
:10175000AE059093AF05A093B005B093B10580910D
:101760008605813041F4FE8DF6FFA0C68E8D9F8DDB
:101770008F7B9F8F8E8F80918B05882341F08130E6
:1017800061F492E09BA31AA2A1E0A9A30BC01BA243
:10179000B1E0BAA3E2E0E9A305C0F1E0FBA322E0D7
:1017A0002AA319A280918905813051F543EBE42EDB
:1017B00045E0F42E00E010E0C72CDD24C601002E29
:1017C00002C0959587950A94E2F780FF10C0D70173
:1017D0006D917D918D919C9123E333E34BEC51E42A
:1017E0000E94E937F70160837183828393830F5FDF
:1017F0001F4F84E090E0E80EF91E03301105F1F66A
:101800009CA1933049F480918C05813029F4A4E0A7
:101810007A1611F085E253C6DE011696EAE6F5E087
:101820008CE001900D928150E1F7B1FE12C09091D1
:101830008D05973008F03CC680914D05891749F019
:10184000892FBE016A5F7F4F0E948C22882309F492
:1018500031C680918605823021F0883009F0FDC0C4
:101860009AC0772009F428C68E8D9F8D8075907060
:10187000892B09F41BC66091A6057091A70580917C
:10188000A8059091A9050E94C3380E9414366730BC
:1018900008F00EC62091A105243131F0223009F064
:1018A000FDC5BE8DB7FDFAC5662319F0615068A36A
:1018B00003C0E0918D05E8A38E010E5E1F4F88A145
:1018C000B8010E948C22882309F4F4C5780133EB17
:1018D000832E35E0932E2EE5C22E25E0D22E00E099
:1018E00010E0A72CBB24C501002E02C0959587955A
:1018F0000A94E2F780FF3BC08091A105843169F52D
:10190000D6016D917D918D919C91139758962D9153
:101910003D914D915C915B970E94C634F40120810A
:101920003181428153810E94C634D7016D937D93EA
:101930008D939C9313970230D1F4209182053091BE
:10194000830540918405509185050E94C634F701B6
:1019500060837183828393830AC0F40180819181C3
:10196000A281B381F70180839183A283B3830F5F48
:101970001F4F84E090E0E80EF91E880E991EC80EF5
:10198000D91E0330110509F0AECFAE8DBF8DAF7AF1
:10199000BF8FAE8F02C1772009F48EC503EB15E02F
:1019A0009EE5C92E95E0D92E86E0882E912C8C0ECE
:1019B0009D1EEE24FF24A72CBB24C5010E2C02C0C3
:1019C000959587950A94E2F780FF2CC0F601608117
:1019D000718182819381D4012D913D914D915C91D2
:1019E0000E94C634F80120813181428153810E94D6
:1019F000C634D8016D937D938D939C931397B2E079
:101A0000EB16D1F420918205309183054091840535
:101A1000509185050E94C634F801608371838283EA
:101A200093830AC0F601808D918DA28DB38DF8014C
:101A300080839183A283B3830894E11CF11C0C5F23
:101A40001F4F84E090E0C80ED91E880E991E93E0C7
:101A5000E916F10409F0B1CF9FC0ACA1A33009F49D
:101A60007CC0772009F479C01EE5C12E15E0D12E87
:101A700003EB15E0B6E0AB2EB12CAC0EBD1EEE2490
:101A8000FF24872C9924C4010E2C02C095958795BC
:101A90000A94E2F780FD0BC0F60180819181A2815A
:101AA000B381F80180839183A283B38346C0809180
:101AB0008605873009F441C080918A05882361F545
:101AC000D5016D917D918D919C91F601208D318D87
:101AD000428D538D0E94C734D8012D913D914D9177
:101AE0005C910E94C734F801608371838283938381
:101AF000F2E0EF1611F520918205309183054091B7
:101B00008405509185050E94C734D8016D937D935B
:101B10008D939C93139711C0F8016081718182812C
:101B20009381D6012D913D914D915C910E94C734D6
:101B3000F80160837183828393830894E11CF11C14
:101B400084E090E0C80ED91E0C5F1F4FA80EB91E8E
:101B500093E0E916F10409F096CF8091860585306F
:101B600049F0873099F08330B9F4772009F41CA24A
:101B700086E004C0772009F41CA287E0BE016E5EF7
:101B80007F4F0E948C22882339F494C4809187056A
:101B9000823010F08EE193C418A21091870518309E
:101BA00049F4772009F45FC2ACA1A13009F45BC20B
:101BB0008FE185C4BCA1B23009F055C21123E9F010
:101BC0006091910570919205809193059091940593
:101BD00020E030E040E050E00E94A035882309F486
:101BE00063C4143030F4123060F4113009F03BC299
:101BF00004C0183008F037C213C2772009F432C28B
:101C000032C2772009F458C4FBA1EF2FF0E0F8A707
:101C1000EFA39AA1892F90E09EA38DA381E090E08D
:101C20008C010DA002C0000F111F0A94E2F70FA053
:101C300002C0880F991F0A94E2F7082B192B872DF1
:101C400090E080239123892B11F480E238C4EFA126
:101C5000F8A5EE0FFF1FEE0FFF1FDF01A95BBA4FC4
:101C6000EA57FA4F65A576A587A590A957962D91B5
:101C70003D914D915C915A970E94C6345B016C0175
:101C8000EDA1FEA1EE0FFF1FEE0FFF1FDF01A95B0D
:101C9000BA4FEA57FA4F65A576A587A590A957963A
:101CA0002D913D914D915C915A970E94C6341B0134
:101CB0002C01AE8DA7FF02C10EE515E063EBE62E09
:101CC00065E0F62EF8016081718182819381D701F0
:101CD0002D913D914D915C910E94A035882359F43E
:101CE0000C5F1F4FE4E0F0E0EE0EFF1EF5E00A3659
:101CF0001F0741F7E3C3809189058130B1F46091FA
:101D0000AA057091AB058091AC059091AD0523E3D8
:101D100033E34BEC51E40E94E9376093AA057093DA
:101D2000AB058093AC059093AD05E090AA05F090CB
:101D3000AB050091AC051091AD05C801B70120E0DD
:101D400030E040E850E40E94E937A80197010E9482
:101D5000E9377B018C01C601B501A60195010E94FE
:101D6000E9379B01AC01C801B7010E94C6347B0171
:101D70008C01C201B101A20191010E94E9379B01CE
:101D8000AC01C801B7010E94C6347B018C0120E080
:101D900030E040E050E00E94A035882314F482E255
:101DA0008EC3C801B7010E9476387B018C01C60141
:101DB000B501A20191010E94E6289B01AC0117FB2D
:101DC000109517F91095C801B7010E94A7357B013E
:101DD0008C0180918705833021F417FB109517F94A
:101DE00010956090AA057090AB058090AC0590901E
:101DF000AD05C401B30120E030E040E050E00E94B6
:101E0000A03588237CF417FB109517F91095D401A1
:101E1000C301B0588093AA059093AB05A093AC057D
:101E2000B093AD058E8D9F8D8F779F8F8E8FAFA1D5
:101E3000B8A5AA0FBB1FAA0FBB1FA657BA4FB8A7BA
:101E4000AFA3C201B101A80197010E94E9379B012C
:101E5000AC01C601B5010E94C63420E030E040E08C
:101E60005FE30E94E937EFA1F8A563877487858750
:101E700096878DA19EA1880F991F880F991F86575D
:101E80009A4F9EA38DA3C601B501A80197010E9498
:101E9000E9379B01AC01C201B1010E94C73420E0C7
:101EA00030E040E05FE30E94E937ADA1BEA11B96A0
:101EB0006D937D938D939C931E97D5C0862C99240A
:101EC00008211921012B11F483E2F9C2EE8DFF8D57
:101ED000E17FFF8FEE8F80918905813041F535E9F3
:101EE000E32E35E0F32E00E010E0C401002E02C026
:101EF000959587950A94E2F780FF10C0D7016D9100
:101F00007D918D919C9123E333E34BEC51E40E944E
:101F1000E937F70160837183828393830F5F1F4FDB
:101F200084E090E0E80EF91E03301105F1F6EFA011
:101F3000F8A4EE0CFF1CEE0CFF1CAAE8B5E0EA0EBC
:101F4000FB1EC601B501F7012385348545855685FD
:101F50000E94C6345B016C010DA11EA1000F111F70
:101F6000000F111F06571A4FC201B101D8011B966D
:101F70002D913D914D915C911E970E94C6349B011D
:101F8000AC01C601B5010E94E6285B016C01F701B6
:101F90006385748585859685D8011B962D913D9125
:101FA0004D915C911E970E94E6283B014C01609385
:101FB000AA057093AB058093AC059093AD05C6015F
:101FC000B501A40193010E94C6347B018C01E89401
:101FD00017F9C801B7012AE037ED43EA5BE30E9435
:101FE000AE3718160CF03FC0C801B70120E030E052
:101FF00040E05FE30E94AE3718160CF45FC2C401E4
:10200000B3012FE632E143E85AE30E94E9379B012E
:10201000AC01C801B7010E94AE37181624F54EC2B4
:10202000772009F449C20EE515E083EBE82E85E040
:10203000F82EF8016081718182819381D7012D9101
:102040003D914D915C910E94A035882361F40C5F15
:102050001F4FE4E0F0E0EE0EFF1EF5E00A361F072A
:1020600041F72CC21CA28E8D9F8D8E7D9C7F2CA152
:10207000222321F08E8D9F8D8E7D907E892B11F0F5
:1020800084E21DC28091A2059091A305A091A405B0
:10209000B091A50580935A0590935B05A0935C05CC
:1020A000B0935D05809188058093480580919105E6
:1020B00090919205A0919305B09194058093550558
:1020C00090935605A0935705B0935805E090AE0540
:1020D000F090AF050091B0051091B10560915105E8
:1020E000709152058091530590915405A801970174
:1020F0000E94A0358823C1F080915005882321F0EB
:10210000B801A7010E9405138091AE059091AF051B
:10211000A091B005B091B1058093510590935205FF
:10212000A0935305B09354058091B205809359054F
:102130009091900580915005891779F04091510553
:10214000509152056091530570915405892F0E945A
:102150000513809190058093500590918F05809193
:102160004F05891739F0892F0E94291380918F0517
:1021700080934F0580918605813051F46091A605CA
:102180007091A7058091A8059091A9050E94660409
:1021900080918B0580934B0580918905809349053B
:1021A0008CA18330D9F480918C0580934C058130CB
:1021B00049F48091BB059091BC05A091BD05B091FB
:1021C000BE0504C080E090E0A0E0B0E0809382050E
:1021D00090938305A0938405B093850590918D0518
:1021E00080914D05891759F090934D05AAE6B5E009
:1021F000FE0136968CE001900D928150E1F78091BE
:102200008A0580934A0580918605853059F186308C
:1022100048F4833039F1843008F044C0823009F04A
:102220005AC00AC0883009F445C0893009F44CC04E
:10223000863009F050C038C08E010E5E1F4F88A155
:10224000B8010E94812280914D0598A1891709F05B
:1022500042C0AAE6B5E0F8018CE001900D928150F1
:10226000E1F739C0ACA1AA2349F083EB95E040E047
:1022700050E060E87FEB20E00E94C1048E010E5E1A
:102280001F4FC80140E050E060E87FEB20E00E9473
:10229000C104AEE5B5E0F8018CE001900D928150EB
:1022A000E1F719C086E001C087E06EE575E00E94A5
:1022B000812211C0A6E7B5E0E3EBF5E08CE00190E8
:1022C0000D928150E1F707C08CE0E6E7F5E0DF0111
:1022D0001D928A95E9F7809187058093470588309C
:1022E00009F4C2C0BCA1B23009F0BEC0833009F409
:1022F0004AC0843028F48130C1F0823028F50DC006
:10230000853009F47AC0853008F469C0863009F454
:1023100082C0873009F09FC08DC083EB95E040E01C
:1023200050E060E87FEB20E00CC0409155055091F3
:102330005605609157057091580583EB95E0209103
:1023400048050E94C10487C000D00F92EDB7FEB7C8
:1023500031960091AA051091AB052091AC05309102
:10236000AD05C0905505D0905605E0905705F0900A
:1023700058058AA1ADB7BEB711968C9399A19183E8
:1023800081E082831DC000D00F92EDB7FEB7319679
:102390000091AA051091AB052091AC053091AD05D7
:1023A000C0905505D0905605E0905705F09058051F
:1023B0008AA1ADB7BEB711968C9399A19183128271
:1023C0008EE595E063EB75E045E955E0A0904805A2
:1023D0008BA00E9474050F900F900F903CC040910D
:1023E000550550915605609157057091580583EB3E
:1023F00095E02091480500E01BC0409155055091A3
:102400005605609157057091580583EB95E0209132
:10241000480500E01CC0409155055091560560915B
:1024200057057091580583EB95E02091480501E030
:10243000EE240FC040915505509156056091570507
:102440007091580583EB95E02091480501E0EE245A
:10245000E3940E94F204AEE5B5E0E3EBF5E08CE036
:1024600001900D928150E1F780918E0580934E0589
:10247000882329F10E94561581E0809329050E9446
:10248000251480914E05823019F40E942A0402C05E
:1024900010924E0580E013C088E111C084E10FC0A6
:1024A00087E10DC085E10BC086E109C08CE107C062
:1024B0008DE105C087E003C08AE101C081E2A896F2
:1024C0000FB6F894DEBF0FBECDBFCF91DF911F9145
:1024D0000F91FF90EF90DF90CF90BF90AF909F90C3
:1024E0008F907F906F905F904F903F902F900895C6
:1024F00084E00C94530A83E00C94530A8EE595E033
:102500006CE275E00E94C3320895E7E4F5E08FE3E2
:10251000DF011D928A95E9F780914D05BF016D5D40
:102520007F4F0E948C22882319F487E00E94DB2DC4
:102530000895239A259AE0EBF0E080818F778083DD
:102540000895E0EBF0E080818F7780830895EF922B
:10255000FF920F931F937A018B01882331F48091AE
:10256000B0008F778093B0004BC0813011F42D986C
:1025700001C02D9A83E88093B0008091B100887FDC
:1025800082608093B100C801B70120E030E040E0F4
:1025900050E00E94A03588235CF40F2EF0E0EF2E6F
:1025A000F0E0FF2EF0E00F2FF0E01F2FF02D14C011
:1025B000C801B70120E030E04AE754E40E94AE379A
:1025C000181654F40F2EF0E0EF2EF0E0FF2EFAE78D
:1025D0000F2FF4E41F2FF02DC801B7012CE53FE8C1
:1025E00042E85EE30E94E93720E030E040E05FE34C
:1025F0000E94C7340E947D360E9414366093B30057
:102600001F910F91FF90EF900895DF92EF92FF924C
:102610000F931F93D82E7A018B0180912805823069
:1026200039F00E9456158D2DB801A7010E94A712FE
:102630001F910F91FF90EF90DF9008953B9A439880
:10264000089543980895823011F4439A0895439869
:1026500008951F93182F80912805823039F00E9429
:102660005615123011F4439A01C043981F910895F2
:102670009091010180910001891710F0891B089544
:102680008058891B0895E0ECF0E0808182608083AF
:102690001092C50080E18093C400E1ECF0E08081FD
:1026A000806180838081886080838081806880836E
:1026B0000895282FE09102019E2F9F5F903431F4FE
:1026C00090E004C080912A0584FD0FC08091030131
:1026D0009817C1F3F0E0E154FA4F20839093020180
:1026E0008091C10080628093C10008951F920F9273
:1026F0000FB60F9211248F939F93EF93FF938091C6
:102700000301E82FF0E0E154FA4F90819093C60066
:10271000982F9F5F903409F490E09093030180918B
:102720000201981729F48091C1008F7D8093C10028
:10273000FF91EF919F918F910F900FBE0F901F907F
:1027400018959091010180910001891711F48FEF84
:102750000895E92FF0E0E150FA4F8081E92FEF5F13
:10276000E03809F4E0E0E093010108958091000170
:102770008093010108951F920F920FB60F921124BA
:102780002F933F934F935F936F937F938F939F9379
:10279000AF93BF93EF93FF939091C6009F3361F087
:1027A000903428F4983119F1913221F514C0903405
:1027B000C1F09E37F9F406C09FB7F89480912A05BE
:1027C000816005C09FB7F89480912A05826080934C
:1027D0002A059FBF20C09FB7F89480912A05886082
:1027E000F6CF9FB7F89480912A058062F0CF0E94BF
:1027F0002A0411C0E09100012E2F2F5F203809F428
:1028000020E080910101281731F0F0E0E150FA4F0B
:10281000908320930001FF91EF91BF91AF919F9121
:102820008F917F916F915F914F913F912F910F9079
:102830000FBE0F901F9018959FB7F89480912A05AE
:10284000826080932A059FBF0895CF92DF92EF9216
:10285000FF920F931F93CF93DF93FF24F39428E00D
:10286000D22E90E2C92E00E180E4E82E80912B0563
:10287000882381F1F0922805182F81FF02C081E0A2
:102880000FC082FF02C082E00BC083FF02C083E062
:1028900007C084FF02C084E003C085FF03C085E059
:1028A0000E94663210FF0FC081E00E94AC2D9FB7DE
:1028B000F89480912A058F7E80932A059FBF80918E
:1028C0002A0584FFFCCF8FB7F89490912B051092C6
:1028D0002B058FBF10912A05112309F4C5C0C12F04
:1028E000D0E014FF04C081E080932705D6C010FF1C
:1028F0000AC00E94422E9FB7F89480912A058E7FCD
:1029000080932A059FBFCE0188769070892B09F4A9
:102910003DC090912805992349F0892F8C7771F15A
:10292000983021F40E945116F092290590912805C3
:10293000992319F482E080932905C6FF09C09830D5
:1029400011F4E0922805809129058860809329057B
:10295000C3FF06C08091280585FD02C000932805AD
:10296000C5FF0CC086E00E94AC2D8091290581FD39
:102970001460846080932905C09228059FB7F8945D
:1029800080912A05877980932A059FBFC12FD0E0C7
:1029900011FF4AC0CE0188769070892BE9F58091AD
:1029A0002805882331F08075B9F18091290581FFD0
:1029B00033C08091290582FF1CC080915005882377
:1029C00071F04091510550915205609153057091FD
:1029D00054050E94A71280EA9FE00E94DC288091A3
:1029E0004F05882331F00E94231388EE93E00E9464
:1029F000DC280E945623892B59F08091290583FDFC
:102A000007C0D09228050E9473160E94F11502C0DB
:102A100010922805109229059FB7F89480912A05F5
:102A20008D7F80932A059FBFC2FF1EC0809128051D
:102A3000807371F08091290582FF04C00E94A11269
:102A40000E9421138091290582608093290504C08A
:102A500010922905109228059FB7F89480912A05B5
:102A60008B7F80932A059FBF809128058C7711F07A
:102A70000E94731680912805803251F480912905B7
:102A800081FF06C00E94A532882311F40093280517
:102A900080912905882309F0E9CEDF91CF911F911C
:102AA0000F91FF90EF90DF90CF9008959FB7F8942B
:102AB00080912A05826080932A059FBF0E94251479
:102AC00080912705882341F40E945623892BB1F772
:102AD00080912805883091F308950F931F930E94E9
:102AE000A72D80912805813021F482E00E94AC2D31
:102AF00028C00E94A532882341F080912A05806277
:102B000080932A050E94251402C01092280584E0B3
:102B100091E00E942E3315C09A3011F09D3029F5B6
:102B2000E12FF0E0EC5FFE4F10820E9425148091AF
:102B30002705882331F480910401882321F40E9421
:102B4000DB2D00E025C0843229F484E091E00E946E
:102B50005A33F5CF80912805813011F489E0EFCF09
:102B600084E091E00E945D08EACF002321F09932D1
:102B700009F500E01FC09132E8F09F32D9F0983299
:102B800011F401E017C01F3428F08BE00E94DB2D08
:102B900010E010C0892F8156A12FB0E0E12FEF5F28
:102BA0008A3120F4AC5FBE4F905202C0AC5FBE4F82
:102BB0009C931E2F0E94A113982F8F3F09F0ACCF3A
:102BC0008FB7F89490912A05926090932A058FBF51
:102BD0000E94251480912705882361F31F910F918E
:102BE00008958091BC0682FF02C0289A01C02898EF
:102BF000809128058C70E1F08091F4018093DC01D4
:102C00008091F3018093DB018091AF0690E0A0E01A
:102C1000B0E00297A109B109880F991FAA1FBB1F35
:102C200081958093DA0180916F00826080936F00BC
:102C300008951F920F920FB60F9211248F939F93B6
:102C40009BB18091F3018C71937E892B8BB915BC5C
:102C50009F918F910F900FBE0F901F9018958AB182
:102C60008C618AB9209A8AB1806E8AB9E1E8F0E075
:102C700080818F7E8083808188608083E0E8F0E0BF
:102C800080818C7F808380818F708083EEE6F0E08E
:102C90008081887F808314BC15BC808181608083A3
:102CA0000895CF93DF93C091F601D091F70120975B
:102CB000B9F081E08093FB01209111023091120262
:102CC0004091130250911402CA01B9010E94E937E0
:102CD000698B7A8B8B8B9C8B1092F7011092F6018B
:102CE000DF91CF9108952F923F924F925F926F9212
:102CF0007F928F929F92AF92BF92CF92DF92EF928C
:102D0000FF920F931F93DF93CF93CDB7DEB7E99771
:102D10000FB6F894DEBF0FBECDBF80912805807737
:102D200009F422C66091110270911202809113027F
:102D30009091140220E030E040E050E00E94A03585
:102D4000882309F011C617C68091F6019091F7010A
:102D5000892B09F07EC20E9456239093F70180933D
:102D6000F601892B09F407C68091FB01882319F02D
:102D70001092FB01CAC08091FA018F5F8093FA0123
:102D8000853011F41092FA01E091FA0121E1E29FFD
:102D9000F0011124EC5AFE4FF093F901E093F80191
:102DA0000091F6011091F701D8018C918083119662
:102DB0002D913D914D915C91149793E0220F331F1B
:102DC000441F551F9A95D1F721833283438354833F
:102DD00015962D913D914D915C91189783E0220FAE
:102DE000331F441F551F8A95D1F7258336834783A8
:102DF000508719962D913D914D915C911C9773E0F0
:102E0000220F331F441F551F7A95D1F72187328730
:102E1000438754871D962D913D914D915C9150971C
:102E200063E0220F331F441F551F6A95D1F7258792
:102E300036874787508B1D966D917D918D919C9122
:102E400050970E9440366093FC017093FD0180937F
:102E5000FE019093FF01F80125A136A147A150A5DD
:102E60000E94A7359B01AC016093000270930102A0
:102E7000809302029093030260E070E080EA9FE397
:102E80000E94A735609304027093050280930602A6
:102E90009093070280E090E0A0E0B0E08093080209
:102EA00090930902A0930A02B0930B028091280527
:102EB0008077E1F02091190230911A0240911B02B3
:102EC00050911C022093110230931202409313027E
:102ED00050931402CA01B9010E94E937D8015196F2
:102EE0006D937D938D939C9354970FC0F8016189E6
:102EF0007289838994890E94763860931102709355
:102F00001202809313029093140280E090E0A0E0FC
:102F1000B0E080930D0290930E02A0930F02B09345
:102F200010020091F6011091F701D80191968D9150
:102F30009D910D90BC91A02D88AB99ABAAABBBAB7A
:102F400060E070E080E09FE328A939A94AA95BA965
:102F50000E94A7351B012C0180912805807709F478
:102F600056C0B2E0B0930C02F801A5A0B6A0C7A06D
:102F7000D0A46188728883889488C201B101A401B9
:102F800093010E94E9379B01AC01C601B5010E9483
:102F9000C6347B018C0120E030E040E050E00E942C
:102FA000A0358823FCF468A979A98AA99BA920E007
:102FB00030E040E050EC0E94E937A60195010E9404
:102FC000E9379B01AC01C401B3010E94C7340E94E0
:102FD00076386093190270931A0280931B029093C3
:102FE0001C0237C1E0920D02F0920E0200930F0214
:102FF0001093100280E090E0A0E0B0E0809319020E
:1030000090931A02A0931B02B0931C0222C110924B
:103010000C02F80185A196A1A7A1B0A580931D027D
:1030200090931E02A0931F02B09320020E94D52409
:103030005B016C016093190270931A0280931B026A
:1030400090931C02A60195010E94E9373B014C01B7
:103050002091F6013091F70139AF28AFD90195964B
:103060008D919D910D90BC91A02D8B8F9C8FAD8FDC
:10307000BE8FF9016189728983899489A4019301C2
:103080000E94C6349B01AC01C201B1010E94E93724
:103090009B01AC016B8D7C8D8D8D9E8D0E94C73404
:1030A00020E030E040E05FE30E94E9377B018C01E3
:1030B00020E030E040E050E00E94AE3718160CF0FF
:1030C000B4C0C801B7012B8D3C8D4D8D5E8D0E9423
:1030D000A03588230CF095C0A8ADB9AD5D966D9173
:1030E0007D918D919C919097A40193010E94C6348B
:1030F0009B01AC01C201B1010E94E937609321023A
:10310000709322028093230290932402A8019701D6
:103110000E94A03588230CF047C0E8ADF9ADE58CDE
:10312000F68C078D10A1C801B7010E947638609314
:103130001502709316028093170290931802A8AD9F
:10314000B9AD5196AD90BD90CD90DC905497C6012D
:10315000B501A80197010E94A035882321F4B1E0B0
:10316000B0930C0276C0C801B701A60195010E9478
:10317000C6349B01AC01C201B1010E94E9379B0139
:10318000AC0160911D0270911E0280911F0290910E
:1031900020020E94C63460931D0270931E02809329
:1031A0001F029093200255C0E0921D02F0921E0271
:1031B00000931F0210932002E0922102F09222025B
:1031C0000093230210932402E8ADF9AD21A132A1AE
:1031D00043A154A1CA01B9010E94C734A8019701B3
:1031E0000E94E937A40193010E94C7340E947638F7
:1031F0006093150270931602809317029093180241
:1032000028C0F2E0F0930C0280911102909112021A
:10321000A0911302B09114028093150290931602AC
:10322000A0931702B093180214C080E090E0A0E0D1
:10323000B0E080931D0290931E02A0931F02B093F2
:103240002002A0921502B0921602C0921702D092EC
:1032500018028091F101B6E08B9FD0011124A7558F
:10326000BE4FB9AFA8AF8091FA0112968C93E0914E
:10327000F601F091F701FA8FE98F85A196A1A7A138
:10328000B0A58D8B9E8BAF8BB88FBC01CD012091EB
:1032900004023091050240910602509107020E94FB
:1032A000C6346CA37DA38EA39FA320E030E040E052
:1032B00050E00E94A035882344F480E090E0A0E034
:1032C000B0E08CA39DA3AEA3BFA380911D029091FB
:1032D0001E02A0911F02B0912002898B9A8BAB8BAA
:1032E000BC8B8091150290911602A0911702B091AB
:1032F00018028D879E87AF87B88B809121029091AD
:103300002202A0912302B091240289879A87AB8779
:10331000BC8780910D0290910E02A0910F02B09196
:1033200010028D839E83AF83B8878091190290919C
:103330001A02A0911B02B0911C0289839A83AB836D
:10334000BC838091110290911202A0911302B0915E
:10335000140288A399A3AAA3BBA390910C029F8FE8
:10336000AD88BE88CF88D88C8EE393ECAEE2B9E30B
:103370008CA79DA7AEA7BFA780E090E0A0E0B0E03B
:1033800088A799A7AAA7BBA70F2EFEE36F2EF3EC81
:103390007F2EFEE28F2EF9E39F2EF02D9F8D992335
:1033A00021F0913009F0B3C080C0C401B301A98DF0
:1033B000BA8D91962D913D914D915C9194970E947B
:1033C000E9377B018C0120E030E040E05FE30E94C0
:1033D000E9379B01AC0168A179A18AA19BA10E9458
:1033E000C7349B01AC01C401B3010E94E9379B01C2
:1033F000AC01C601B5010E94C6345B016C0129898C
:103400003A894B895C890E94A03588230CF040C022
:1034100069897A898B899C8929853A854B855C8560
:103420000E94A035882319F4B2E0BF8F02C0E1E00A
:10343000EF8F6D897E898F89988D29893A894B898B
:103440005C890E94C6349B01AC010E94C7347B0199
:103450008C0168A179A18AA19BA12D853E854F850C
:1034600058890E94C7349B01AC01C801B7010E9472
:10347000A7353B014C01A988BA88CB88DC888D85AB
:103480009E85AF85B88988A399A3AAA3BBA3B0C022
:1034900068A179A18AA19BA1A80197010E94C734C4
:1034A00068A379A38AA39BA3A3C06D857E858F851E
:1034B0009889A40193010E94E9379B01AC01C601E0
:1034C000B5010E94C6347B018C0129853A854B8564
:1034D0005C850E94A03587FD03C05701680188C044
:1034E000C601B50129853A854B855C850E94C634A5
:1034F0002D853E854F8558890E94A7353B014C019B
:10350000A984BA84CB84DC8492E09F8F71C0C4010B
:10351000B301A98DBA8D91962D913D914D915C91FC
:1035200094970E94E9377B018C0168A179A18AA157
:103530009BA1A80197010E94AE371816ACF5C801EF
:10354000B70120E030E040E05FEB0E94E9379B01EB
:10355000AC0168A179A18AA19BA10E94C7349B01FB
:10356000AC01C401B3010E94E9379B01AC01C60163
:10357000B5010E94C6341B012C012D813E814F8173
:1035800058850E94AE3718167CF468A179A18AA1EB
:103590009BA1A80197010E94C63468A379A38AA3BE
:1035A0009BA36201510124C0C601B5012D813E815A
:1035B0004F8158850E94C6349B01AC010E94C734DC
:1035C0007B018C0168A179A18AA19BA129813A8103
:1035D0004B815C810E94C7349B01AC01C801B701DB
:1035E0000E94A7353B014C01AD80BE80CF80D884BE
:1035F00068A579A58AA59BA5A40193010E94C7345B
:1036000068A779A78AA79BA72CA53DA54EA55FA56E
:103610000E94A03588232CF46CA57DA58EA59FA5BE
:1036200018C0C601B5012CA13DA14EA15FA10E9409
:10363000AE3718160CF56CA57DA58EA59FA52EE3BB
:1036400033EC4EE259E30E94C7346CA77DA78EA7E6
:103650009FA728A539A54AA55BA50E94C6343B01B2
:103660004C01C601B5012D813E814F8158850E94D4
:10367000AE3718160CF492CE88A199A1AAA1BBA1CD
:103680008093110290931202A0931302B09314023C
:103690009F8D90930C02C601B501209100023091DC
:1036A000010240910202509103020E94E9376CAB83
:1036B0007DAB8EAB9FAB0E948D351B012C016091C1
:1036C000FC017091FD018091FE019091FF010E942B
:1036D0008D353B014C01A20191010E94C6340E942C
:1036E0001436A8ADB9AD6D937C93672BB1F580917D
:1036F0002805807791F180E090E0A0E0B0E0809331
:10370000110290931202A0931302B09314028093BB
:10371000080290930902A0930A02B0930B02209230
:10372000FC013092FD014092FE015092FF01009198
:10373000F6011091F701C201B10120910002309110
:10374000010240910202509103020E94A735F80144
:1037500065A376A387A390A7FEC068A579A58AA5CF
:103760009BA5209108023091090240910A025091D4
:103770000B020E94C7347B018C01C401B3012CA948
:103780003DA94EA95FA90E94C6349B01AC01C801A6
:10379000B7010E94A7357B018C01C201B1012CA9A0
:1037A0003DA94EA95FA90E94C634A80197010E94B5
:1037B000E937609308027093090280930A0290939C
:1037C0000B02C801B70120EC31EE44E65EE40E9432
:1037D000E9370E948D350E941436AB01BC01403D93
:1037E000F7E05F07F0E06F07F0E07F0728F4A8AD8F
:1037F000B9AD15961C9233C0403ABFE05B07B0E00C
:103800006B07B0E07B0728F421E0E8ADF9AD258334
:103810000FC040343FE1530730E0630730E07307E7
:1038200010F4E2E001C0E3E0A8ADB9AD1596EC9369
:10383000A8ADB9AD15962C911597022E04C07695BA
:103840006795579547950A94D2F78D919C9111975A
:1038500002C0880F991F2A95E2F78D939C93403000
:10386000B0E05B07B1E06B07B0E07B0728F4E8ADA0
:10387000F9AD5483438308C0EFEFFFEFA8ADB9ADB6
:103880001496FC93EE9313978091F2018093F101CB
:103890008F5F8093F201863011F41092F201C6011D
:1038A000B5012D813E814F8158850E94AE37181693
:1038B000ACF4E091F601F091F701A5A2B6A2C7A27F
:1038C000D0A68CA99DA9AEA9BFA98093FC01909315
:1038D000FD01A093FE01B093FF0146C0C601B501F2
:1038E00020E030E040E050E00E94AE371816B4F51A
:1038F00080E090E0A0E0B0E080931102909312028B
:10390000A0931302B09314028093080290930902CB
:10391000A0930A02B0930B022092FC013092FD01A9
:103920004092FE015092FF010091F6011091F701C3
:10393000C201B101209100023091010240910202C6
:10394000509103020E94A735D80195966D937D93FF
:103950008D939C9398970E94CC240DC01092F701F0
:103960001092F6010E9442239091F0018091F201A1
:10397000981709F0E9C9E9960FB6F894DEBF0FBEB3
:10398000CDBFCF91DF911F910F91FF90EF90DF900E
:10399000CF90BF90AF909F908F907F906F905F90EF
:1039A0004F903F902F900895FF920F931F93CF93C6
:1039B000DF931092F3011092F401C0E0D0E00C2FDD
:1039C000FC2E8091B00690E00C2E02C09595879554
:1039D0000A94E2F780FF08C01091F3018C2F0E9437
:1039E0004820182B1093F3018091B10690E002C09B
:1039F00095958795FA94E2F780FF08C01091F4013D
:103A0000802F0E945220182B1093F4012196C3306E
:103A1000D105A9F6DF91CF911F910F91FF900895E5
:103A200080916F008D7F80936F0080918100887FEF
:103A30008160809381001092F5019091B2069F3FC2
:103A400021F480912B05882351F080912805843042
:103A500031F0892F90E00E94DC2891E001C090E0D5
:103A60008091BC0682FF02C081E09827992311F063
:103A7000289A0895289808950E94101D8BE2EAEF75
:103A8000F1E0DF011D928A95E9F783E2EDECF1E0C8
:103A9000DF011D928A95E9F71092EF011092EE0175
:103AA0001092F7011092F6011092F0011092F101BC
:103AB00081E08093F2011092F5010E94D41C8BB139
:103AC000837E9091F301892B8BB98BB18F7190918B
:103AD000F401892B8BB908951F920F920FB60F92A4
:103AE00011242F933F934F935F936F937F938F9303
:103AF0009F93AF93BF93CF93DF93EF93FF93809107
:103B0000F501882309F007C29BB18091DC01807E1A
:103B10009F71892B8BB98BB1837E9091DB01892BAF
:103B20008BB98091DA0186BD82E085BD81E080930A
:103B3000F50178948091EE019091EF01892B09F0C5
:103B4000A2C09091F0018091F101891709F490C011
:103B50009091F00186E0989FE0011124C755DE4F57
:103B6000D093EF01C093EE018B819C8190938900EB
:103B700080938800888199819093EA018093E9017C
:103B80009A818091EB01891761F19093EB01E1E15A
:103B90009E9FF0011124EC5AFE4FF093ED01E0934B
:103BA000EC0185859685A785B089B695A7959795EB
:103BB00087958093CD019093CE01A093CF01B093D0
:103BC000D0018093D1019093D201A093D301B093FF
:103BD000D4018093D5019093D601A093D701B093DF
:103BE000D801E091EC01F091ED018091F401908118
:103BF00089278093DC012D8181819281A381B48109
:103C0000022E04C0B695A795979587950A94D2F78A
:103C10008093DD019093DE01A093DF01B093E0017A
:103C200085819681A781B085022E04C0B695A7959F
:103C3000979587950A94D2F78093E1019093E201DA
:103C4000A093E301B093E40181859285A385B485B7
:103C500004C0B695A795979587952A95D2F7809336
:103C6000E5019093E601A093E701B093E8010BC052
:103C70000E94101D9FB7F89480912A05846080935C
:103C80002A059FBF48C10E94872D1092DB01209119
:103C9000DD013091DE014091DF015091E001809122
:103CA000CD019091CE01A091CF01B091D001280F0C
:103CB000391F4A1F5B1F2093CD013093CE014093E3
:103CC000CF015093D001E091EC01F091ED01858599
:103CD0009685A785B08982179307A407B507A8F52D
:103CE00084E08093DB0185859685A785B089281BB4
:103CF000390B4A0B5B0B2093CD013093CE014093DF
:103D0000CF015093D001808185FF0CC080912C059C
:103D100090912D05A0912E05B0912F050197A10935
:103D2000B1090BC080912C0590912D05A0912E0515
:103D3000B0912F050196A11DB11D80932C05909384
:103D40002D05A0932E05B0932F052091E101309110
:103D5000E2014091E3015091E4018091D101909101
:103D6000D201A091D301B091D401280F391F4A1F6D
:103D70005B1F2093D1013093D2014093D301509324
:103D8000D40185859685A785B08982179307A407F6
:103D9000B507B8F58091DB0188608093DB018585EC
:103DA0009685A785B089281B390B4A0B5B0B20939E
:103DB000D1013093D2014093D3015093D40180813B
:103DC00086FF0CC08091300590913105A09132059D
:103DD000B09133050197A109B1090BC0809130055D
:103DE00090913105A0913205B09133050196A11D46
:103DF000B11D8093300590933105A0933205B093A7
:103E000033052091E5013091E6014091E7015091A1
:103E1000E8018091D5019091D601A091D701B09190
:103E2000D801280F391F4A1F5B1F2093D5013093FB
:103E3000D6014093D7015093D80185859685A785F3
:103E4000B08982179307A407B507B8F58091DB0105
:103E500080618093DB0185859685A785B089281BC5
:103E6000390B4A0B5B0B2093D5013093D60140935D
:103E7000D7015093D801808187FF0CC08091340511
:103E800090913505A0913605B09137050197A109AC
:103E9000B1090BC08091340590913505A09136058C
:103EA000B09137050196A11DB11D80933405909303
:103EB0003505A0933605B0933705809128058430E9
:103EC00039F4809138059091DB0189238093DB01DF
:103ED0008091E9019091EA0101979093EA01809322
:103EE000E901892B79F41092EF011092EE01809193
:103EF000F0018F5F8093F0018091F001863011F422
:103F00001092F0018091F3019091DB018927809359
:103F1000DB011092F501FF91EF91DF91CF91BF91FD
:103F2000AF919F918F917F916F915F914F913F9151
:103F30002F910F900FBE0F901F901895F999FECFFB
:103F400092BD81BD81E08FBB80B50895F894F99949
:103F5000FECF92BD81BD81E08FBB40B54627842F47
:103F6000992787FD9095262F30E082239323892B74
:103F700039F06F3F19F060BD84E006C084E104C0F1
:103F8000442321F060BD84E28FBBF99A78940895B0
:103F90008F929F92AF92BF92CF92DF92EF92FF9259
:103FA0000F93DF93CF9300D0CDB7DEB75C016B01E9
:103FB0007A014A0100E01EC0002319F021E030E040
:103FC00008C0202F332727FD30952227330F221FCB
:103FD0003327F60161916F01062F020F9C012F5FBD
:103FE0003F4F3A8329830E94A61F089481089108B5
:103FF00089819A8181149104F9F6C7018A0D9B1D6C
:10400000602F0E94A61F0F900F90CF91DF910F910C
:10401000FF90EF90DF90CF90BF90AF909F908F90E8
:104020000895CF93DF93EC01FB019A0190E0B1E09A
:1040300019C0F999FECFF2BDE1BDBFBBA0B5992370
:1040400019F081E090E008C0892F992787FD9095AD
:104050008827990F881F992731969A2F980FA9932F
:10406000215030402115310521F7460F571FF9998E
:10407000FECF52BD41BD81E08FBB80B520E030E076
:10408000981711F421E030E0C901DF91CF91089534
:10409000882311F484E00895813011F080E10895BF
:1040A00088E00895882311F480E20895813011F0AA
:1040B00080E8089580E40895882311F482E008954B
:1040C000813011F080E1089584E0089580E090E06F
:1040D0000E949E1F893011F020E00CC08FE796E00F
:1040E00061E070E04DE450E00E94112020E0892B57
:1040F00009F021E0822F089580E093E060E00E94C3
:10410000A61F81E593E060E00E94A61F089580E06D
:1041100090E069E00E94A61F81E090E06FE776E002
:104120004DE450E00E94C81F0895CF92DF92EF92B5
:10413000FF920F931F93082F6A017B01CB01BA01F5
:1041400020E030E040E050E00E94A035882314F4E5
:1041500084E00EC1043608F459C0045690E00330E0
:1041600008F04BC0913089F0913030F09230D1F0AE
:10417000933009F0F8C031C0E02FF0E0EE0FFF1FE0
:10418000EE0FFF1FE158F94F08C0E02FF0E0EE0FEF
:10419000FF1FEE0FFF1FE557F94FC082D182E28269
:1041A000F382E1C010E0000F111F000F111F09562C
:1041B000194FC701B60120E030E040E752E40E9409
:1041C000E93720E030E040E752E40E94E937F801A7
:1041D0006083718382839383C6C0E02FF0E0EE0F8B
:1041E000FF1FEE0FFF1FED55F94FD701C601B05865
:1041F00080839183A283B383B6C00A3008F4B7C02A
:104200009F5F943009F4B3C00A50A9CFC701B6012B
:104210000E94C3380E941436E02FF0E0EC31F10523
:1042200008F0A5C0EC5CFF4FEE0FFF1F0590F49166
:10423000E02D0994633010F486E09AC06093AF06D5
:1042400092C06093B2068FC06093B00602C06093C4
:10425000B1060E94D41C87C0662321F08091BC0661
:10426000846009C08091BC068B7F05C0662331F055
:104270008091BC0680648093BC0675C08091BC06AA
:104280008F7BF9CF662321F08091BC068068F3CF45
:104290008091BC068F77EFCF6093B30664C0C09265
:1042A000B406D092B506E092B606F092B7065BC0AF
:1042B000C092B806D092B906E092BA06F092BB0658
:1042C00052C0662321F08091BC068160D4CF8091DA
:1042D000BC068E7FD0CF662341F08091BC0684FD62
:1042E00002C08AE045C08062C6CF8091BC068F7D47
:1042F000C2CF662321F08091BC06886003C0809104
:10430000BC06877F8093BC060E940F292CC06623C1
:1043100021F08091BC068061AECF8091BC068F7C7D
:10432000AACF6093BD061FC0C092BE06D092BF0642
:10433000E092C006F092C10616C0C092C206D092AA
:10434000C306E092C406F092C5060DC06093C6068F
:104350001092C70608C0C092C806D092C906E09263
:10436000CA06F092CB060E94872080E001C083E05D
:104370001F910F91FF90EF90DF90CF9008958AE00A
:104380008093AF0689E18093B2061092B006109236
:10439000B10683E08093B3068AE097EDA3EABCE31D
:1043A0008093B4069093B506A093B606B093B70673
:1043B0008FE692E1A3E0BBE38093B8069093B90641
:1043C000A093BA06B093BB061092BD0680E090E0C1
:1043D000A8ECB1E48093BE069093BF06A093C006FC
:1043E000B093C10620E030E04AEF53E42093C206C8
:1043F0003093C3064093C4065093C5068AEF90E0FD
:104400009093C7068093C60680E090E0A0E8BFE3E3
:104410008093C8069093C906A093CA06B093CB06B2
:104420001092BC0680E090E0AAE7B3E480937F0698
:1044300090938006A0938106B093820680938306B2
:1044400090938406A0938506B09386068093870692
:1044500090938806A0938906B0938A0620938B06D2
:1044600030938C0640938D0650938E0620938F06D2
:1044700030939006409391065093920620939306B2
:1044800030939406409395065093960680E090EA08
:10449000ACE0B7E48093970690939806A0939906B2
:1044A000B0939A0680939B0690939C06A0939D06DA
:1044B000B0939E0680939F069093A006A093A106BA
:1044C000B093A20680E090E0A8E4B3EC8093A3064A
:1044D0009093A406A093A506B093A6068093A70682
:1044E0009093A806A093A906B093AA068093AB0662
:1044F0009093AC06A093AD06B093AE060E948720C1
:1045000008959DE0899FC001112480509E4F4CE08A
:1045100050E00E94C81F08950F931F93CF93DF931D
:10452000162F072F9DE0899FE0011124C050DE4F18
:10453000862F972FBE014CE050E00E941120892B5E
:1045400011F081E00FC0E12FF02F8CE0DF011D9210
:104550008A95E9F7CE01612F702F4CE050E00E9460
:10456000C81F80E0DF91CF911F910F910895EF92C6
:10457000FF921F93DF93CF93CDB7DEB72C970FB683
:10458000F894DEBF0FBECDBF0E946620882371F471
:1045900087E00E94DB2D0E94BF210E947C208EEAD2
:1045A00093E060E00E94A61F0E94E83010E07E01C8
:1045B0000894E11CF11C812FB7010E948C228823F2
:1045C00019F487E00E94DB2D1F5F1830A1F72C96AD
:1045D0000FB6F894DEBF0FBECDBFCF91DF911F9114
:1045E000FF90EF900895BC018EEA93E040E550E023
:1045F0000E94C81F0895CF93DF93EC016EEA73E029
:1046000040E550E00E941120892B11F081E009C0A3
:1046100018828EEA93E0BE0140E550E00E94C81F78
:1046200080E0DF91CF91089591E5899FC001112429
:1046300080509D4F40E550E00E94C81F08950F93A1
:104640001F93CF93DF938B0191E5899FE0011124A4
:10465000C050DD4FCB01BE0140E550E00E9411206B
:10466000892B11F081E009C0F8011082CE01B80158
:1046700040E550E00E94C81F80E0DF91CF911F917C
:104680000F9108952091070580910805821769F020
:10469000922F9F5F923109F490E080910A052817CC
:1046A00011F490930A0590930705089590910705DA
:1046B00080910805891719F420E030E006C089E2EE
:1046C000989F900111242B5D3D4FC901089520E072
:1046D0009091070580910905981709F421E0822F30
:1046E000089580912C0590912D05A0912E05B091F3
:1046F0002F0580930B0590930C05A0930D05B093A7
:104700000E058091300590913105A0913205B09150
:10471000330580930F0590931005A0931105B09376
:1047200012058091340590913505A0913605B09120
:1047300037058093130590931405A0931505B09346
:10474000160508958091080590910705891710F0C6
:10475000891B08958E5E891B08954F925F926F9218
:104760007F928F929F92AF92BF92CF92DF92EF9201
:10477000FF920F931F93CF93DF93809108058823B7
:1047800009F482E1782E7A9460900A05761409F48F
:10479000F2C089E2789E4001112485E292E0880E01
:1047A000991EF401A588B688C788D08C21A132A1B2
:1047B00043A154A1CA01B9010E94C734F40125A143
:1047C00036A147A150A50E94E9377B018C01B501B4
:1047D000C601A80197010E94A03587FD04C0D80139
:1047E000C70157016D01C501D601F401818B928B80
:1047F000A38BB48B772011F432E1732E7A94761464
:1048000009F04EC080910705681609F050C00E945B
:1048100051164DC0769CE0011124CB5DDD4F772011
:1048200011F422E1722E7A9480910705781611F422
:104830000E945116AD88BE88CF88D88C69897A8944
:104840008B899C89A60195010E94A035882331F1AE
:1048500029A13AA14BA15CA1CA01B9010E94C734A8
:104860002DA13EA14FA158A50E94E937F40121894D
:104870003289438954890E94C7347B018C01A60187
:1048800095010E94A03588232CF4E98AFA8A0B8BC3
:104890001C8B04C0A98ABA8ACB8ADC8A4E0102C06A
:1048A00099E2692E80910A05781609F0B3CFA0909D
:1048B0000A05BA2CB394F2E1BF1609F4BB2489E2CD
:1048C000A89E800111240B5D1D4F5090080589E2C0
:1048D000482E4CC0B49CE0011124CB5DDD4FF801A3
:1048E000C188D288E388F48869887A888B889C8814
:1048F000C701B601A40193010E94A03588231CF5CD
:10490000F80121A132A143A154A1CA01B9010E9419
:10491000C734F80125A136A147A150A50E94E93767
:104920009B01AC01C701B6010E94C7347B018C0119
:10493000A40193010E94A03588232CF4E98AFA8A05
:104940000B8B1C8BAB2C69897A898B899C892D896F
:104950003E894F89588D0E94A035882309F4AB2CDD
:10496000B394F2E1BF1609F4BB248E01B51409F02B
:10497000B1CFA0920A05DF91CF911F910F91FF90C7
:10498000EF90DF90CF90BF90AF909F908F907F90EF
:104990006F905F904F9008950E9451168091070587
:1049A00080930A050E94AD230895209107052F5F8B
:1049B000223109F420E080910805281729F460E0ED
:1049C00070E080E090E012C030E089E290E0289F43
:1049D000F001299FF00D389FF00D1124EB5DFD4F84
:1049E00061897289838994890E94763808952F920B
:1049F0003F924F925F926F927F928F929F92AF926F
:104A0000BF92CF92DF92EF92FF920F931F93DF93AB
:104A1000CF93CDB7DEB7E0970FB6F894DEBF0FBEE9
:104A2000CDBF98A78FA349A75AA76BA77CA7222E13
:104A30009091080589E2989F4001112425E232E017
:104A4000820E931ED4011D961D921D921D921C92E2
:104A5000509780E090E0A0E0B0E0F40185A396A339
:104A6000A7A3B0A7108289E996E7A6E9BEE781A3CC
:104A700092A3A3A3B4A32401332466247724F301CF
:104A8000E158F94FA080B180C280D380EFA1F8A592
:104A9000E60DF71DC601B5012081318142815381A8
:104AA0000E94E9370E94B9379B01AC01E1E0F0E0D8
:104AB000EC0FFD1FE60DF71D2083318342835383E6
:104AC000F301E55FFA4F80819181A281B381281BB8
:104AD000390B4A0B5B0BDA01C90157FF07C0882766
:104AE0009927DC01821B930BA40BB50BF201818388
:104AF0009283A383B483F401E584F6840785108947
:104B00008E159F05A007B10710F4D801C701F40165
:104B100085879687A787B08BCA01B9010E94423664
:104B2000A60195010E94A7355B016C01EDE0F0E064
:104B3000EC0FFD1FE60DF71D608371838283938365
:104B400020E030E040E050E00E94A035882344F4AB
:104B5000D4011C91832D0E945220182BF401108344
:104B6000D4019596ED90FD900D911C919897C601FA
:104B7000B501A60195010E94E9379B01AC01C8016E
:104B8000B7010E94C7347B018C01CB01D801F4012D
:104B900085A396A3A7A3B0A7339424E030E0620EC8
:104BA000731E420E531E33E0331609F068CFB7016F
:104BB000C8010E9476387B018C01D40195966D93D3
:104BC0007D938D939C9398971D968D919D910D90BB
:104BD000BC91A02D0097A105B10509F40BC269A5F0
:104BE0007AA58BA59CA520E030E040E050E00E9433
:104BF000A03588232CF489E996E7A6E9BEE71EC014
:104C0000222061F0C801B70129A53AA54BA55CA5F2
:104C10000E94A73569A77AA78BA79CA769A57AA543
:104C20008BA59CA520E030E040E85FE30E94A03522
:104C3000882344F480E090E0A0E8BFE389A79AA726
:104C4000ABA7BCA760E070E080E89FE3A8019701F4
:104C50000E94A7356BA37CA38DA39EA3DE011D96A6
:104C6000BE8FAD8FE7E1F5E0FC8FEB8F2BE836E0F0
:104C70003A8F298F80E090E0A0E0B0E08F8F98A37A
:104C8000A9A3BAA3DE015996B8ABAFA7ED8DFE8DEF
:104C9000E080F18002811381C801B70120E030E09B
:104CA00040E050E00E94A035882309F47CC0C80190
:104CB000B7012BA13CA14DA15EA10E94E9372B01B8
:104CC0003C01AD8DBE8D6D937D938D939C93139719
:104CD00060E070E080E89FE3A30192010E94A735A5
:104CE0005B016C01E894D7F8C601B501E98DFA8D36
:104CF00020813181428153810E94E9377B018C01FF
:104D000069A57AA58BA59CA5A80197010E94A0354D
:104D100087FD04C0E9A6FAA60BA71CA7D4019196AB
:104D2000BC91BDA7F401F2A1FEA7D40193962C90EB
:104D3000939794963C90C601B501E98DFA8D248530
:104D40003585468557850E94E9377B018C016DA525
:104D50007EA5C101A80197010E94A03587FD05C06D
:104D6000D801C701EDA69EA71D018DA59EA5D10165
:104D7000F40181A392A3A3A3B4A3C301B201AB8D99
:104D8000BC8D2D913D914D915C910E94E9379B0125
:104D9000AC016F8D78A189A19AA10E94C6346F8F52
:104DA00078A389A39AA3ED8DFE8D3496FE8FED8FA7
:104DB0002B8D3C8D2C5F3F4F3C8F2B8F898D9A8D97
:104DC00004969A8F898FAFA5B8A9EA17FB0709F057
:104DD0005DCF9091080580910705981751F480E008
:104DE00090E0A0E0B0E0F401818B928BA38BB48BB8
:104DF00011C06F8D78A189A19AA124EA30E74DE70F
:104E00005FE30E94AE37181654F480E090E0A0E013
:104E1000B0E0F401818F928FA38FB48F66C06F8D45
:104E200078A189A19AA124EA30E74DE75FEB0E94BF
:104E3000AE37181644F084EA90E7ADE7BFEB8F8FEA
:104E400098A3A9A3BAA360E070E080E89FE32F8D48
:104E500038A149A15AA10E94C63420E030E040E0C8
:104E60005FE30E94E9370E9476385B016C01D40150
:104E700091966D917D918D919C9194972091B4061E
:104E80003091B5064091B6065091B7060E94E937B9
:104E9000A60195010E94E9377B018C0160E070E07A
:104EA00080E89FE3A60195010E94C6349B01AC01F6
:104EB000C801B7010E94A7357B018C0120E030E0DA
:104EC00040E050E00E94A035882354F40F2EF0E01B
:104ED000EF2EF0E0FF2EF0E00F2FF0E01F2FF02D6F
:104EE000F401E18EF28E038F148F69A57AA58BA54C
:104EF0009CA59B01AC010E94E9377B018C01D40188
:104F00005D966D937D938D939C93909759965C904D
:104F100059975A964C905A975B963C905B975C9643
:104F20002C90D0902305C0902405B0902505A0902A
:104F300026052D2D3C2D4B2D5A2D0E94A03587FD89
:104F400004C06D2C7C2CF50105C0D801C7013701C8
:104F5000FA2FEB2F652D742D832D922D93014F2F5A
:104F60005E2F0E94A03588232CF4852D942DA32D2F
:104F7000B22D0EC0C801B7012D2D3C2D4B2D5A2D41
:104F80000E94A03587FD06C08D2D9C2DAB2DBA2D1E
:104F90007C018D01F401E58AF68A078B108FA7E169
:104FA000B5E0FE013D968CE001900D928150E1F755
:104FB000F401858D968DA78DB0A1809323059093E4
:104FC0002405A0932505B0932605ABE0B5E0FE01CE
:104FD00031968CE001900D928150E1F780910905A6
:104FE000809308058F5F823109F480E08093090582
:104FF0000E94AD23E0960FB6F894DEBF0FBECDBF82
:10500000CF91DF911F910F91FF90EF90DF90CF90A4
:10501000BF90AF909F908F907F906F905F904F90D8
:105020003F902F9008958CE1EBE0F5E0DF011D92B9
:105030008A95E9F7109207051092080581E08093A0
:10504000090510920A0508956F927F928F929F92A0
:10505000AF92BF92CF92DF92EF92FF920F931F9386
:10506000CF93DF934C013B015A01FB018081F40196
:10507000E80FF11DEF0189918D3229F4818121968C
:10508000CC24C39405C08B3211F481812196CC24A9
:1050900020E030E040E050E0DD24E0E070E0682F08
:1050A00060536A30F8F4EF5FE930C0F47111DA94BC
:1050B000DA01C901F2E0880F991FAA1FBB1FFA95F8
:1050C000D1F7280F391F4A1F5B1F220F331F441FC0
:1050D000551F260F311D411D511D09C0772339F47D
:1050E000D39405C06E3F29F4772319F471E08991B8
:1050F000D6CFEE2311F480E050C0CA01B9010E945E
:1051000040367B018C0120E030E040E050E00E941E
:10511000A035882369F42BC0C801B7012AE037ED18
:1051200043E25CE30E94E9377B018C01F2E0DF0E91
:105130008FEFD8168CF3D81659F4C801B7012DECAF
:105140003CEC4CEC5DE30E94E9377B018C010FC025
:10515000DD2069F0C801B70120E030E040E251E411
:105160000E94E9377B018C01DA941D149CF3CC205A
:1051700049F0D801C701B058F50180839183A2831B
:10518000B38305C0F501E082F18202831383882D89
:1051900080958C0FF301808381E0DF91CF911F9187
:1051A0000F91FF90EF90DF90CF90BF90AF909F90C6
:1051B0008F907F906F90089520EA3FE004C0F9013E
:1051C0003197F1F701970097D1F70895AF92BF9209
:1051D000CF92DF92EF92FF920F931F937B018C018E
:1051E00059016A01A80197010E94E9377B018C01EE
:1051F000C601B501A60195010E94E9379B01AC01EA
:10520000C801B7010E94C7340E9476381F910F91E0
:10521000FF90EF90DF90CF90BF90AF90089584B152
:10522000897E84B985B1866185B98091BC0683FF8A
:1052300009C080916B00866180936B00809168004B
:10524000816008C080916B00897E80936B008091A3
:1052500068008E7F809368000895EBE6F0E080811F
:10526000897E8083E8E6F0E080818E7F80830895E8
:10527000CF92DF92EF92FF920F931F93CF93DF9322
:105280006C01C0E0D0E0F601EC0FFD1FE080F18082
:1052900002811381C801B70120E030E040E050E016
:1052A0000E94AE3718166CF0FE01E158F94FC801A4
:1052B000B70124A135A146A157A10E94A03588239A
:1052C0001CF580912805883091F49FB7F89480915F
:1052D0002A05886080932A059FBF0E94251480912B
:1052E00027058823B1F4809128058823B1F70E940F
:1052F0002A049FB7F89480912B05856080932B0535
:105300009FBF0E94251405C02496CC30D10509F01A
:10531000BACFDF91CF911F910F91FF90EF90DF9067
:10532000CF9008951F920F920FB60F9211242F93D2
:105330003F934F935F936F937F938F939F93AF931D
:10534000BF93EF93FF9380912805813071F0809196
:105350002B05882351F40E942A049FB7F89480916A
:105360002B05836080932B059FBFFF91EF91BF9129
:10537000AF919F918F917F916F915F914F913F91ED
:105380002F910F900FBE0F901F9018952F923F9264
:105390004F925F926F927F928F929F92AF92BF9245
:1053A000CF92DF92EF92FF920F931F93DF93CF93F1
:1053B000CDB7DEB76B970FB6F894DEBF0FBECDBF8B
:1053C000982F80912705882309F00CC22091C206EE
:1053D0003091C3064091C4065091C5062E8B3F8B79
:1053E000488F598F43EA56E05C8B4B8B5A016624F9
:1053F00077248824992400E010E01E010894211CE1
:10540000311C44E0442E512C4C0E5D1EA92FB0E0FF
:10541000BB8FAA8F802F0E945C20F101E00FF11F4B
:105420008083802F0E944820F201E00FF11F8083CB
:105430008A8D9B8D002E02C0959587950A94E2F780
:1054400080FF15C0F501608171818281938120E028
:1054500030E040EC5FEB0E94E9376B017C01B30167
:10546000C401A70196010E94AE37181624F4C301A7
:10547000D4016C017D010F5F1F4F24E030E0A20ECC
:10548000B31E0330110529F0D701C60136014D01C5
:10549000C1CF0E9413280E9471235524539435E0F4
:1054A000432E8091BC0686FD02C05D8A03C031E0B8
:1054B00035253D8BCE0107966CE275E00E94C33224
:1054C0008091BD06282E332427E0622E712C6C0EAD
:1054D0007D1E830199248824AA24BB248A8D9B8D58
:1054E0000A2C02C0959587950A94E2F780FF2FC099
:1054F000C1010A2C02C0959587950A94E2F780FFB6
:1055000003C0552019F00CC0552051F0D8016D9101
:105510007D918D919C91A70196010E94C73409C08D
:10552000D8016D917D918D919C91A70196010E946A
:10553000C634F80160837183828393838394E4E0AB
:10554000F0E0EC0FFD1FEA0DFB1D8081982A089406
:10555000A11CB11C0C5F1F4FF3E0AF16B10409F0A2
:10556000BDCF682D70E080E090E00E9440360E9440
:1055700076389B01AC01909238056E897F89888DC1
:10558000998D0E94E937AB01BC01CE01079620E05E
:105590000E94F7240E9473160E94F11543B12D89D1
:1055A000222311F036E1432720E030E0E4E0F0E090
:1055B000EC0FFD1FE20FF31F9081892D892359F015
:1055C000E1E0F0E0EC0FFD1FE20FF31F8081842388
:1055D00011F0909599222F5F3F4F2330310531F71D
:1055E000909238050E94731680912A05847349F0C1
:1055F00080912A05847211F00E942A040E942514C9
:10560000F1C0892D8C7151F60E943C1D0E94132817
:105610000E9471238091C6069091C7060E94DC28E3
:105620008091BE069091BF06A091C006B091C106C0
:105630008E8B9F8BA88FB98F442021F091E0592643
:105640004A942FCF8091BD06A82EBB249CE2C92E80
:1056500095E0D92E83EAE82E86E0F82E00E010E0EF
:105660008A8D9B8D002E02C0959587950A94E2F74E
:1056700080FF25C0C501002E02C0959587950A942C
:10568000E2F780FD05C080E090E0A0E0B0E012C04D
:10569000F701B497D7016D917D918D919C912081F7
:1056A0003181428153810E94E9370E94B937AC01B0
:1056B000CB01DA01F60180839183A283B3830F5F6C
:1056C0001F4F24E030E0C20ED31EE20EF31E033063
:1056D000110531F60E9471236091C8067091C906C8
:1056E0008091CA069091CB0620E030E040E050E087
:1056F0000E94AE3718160CF072C000E010E08A8DE0
:105700009B8D002E02C0959587950A94E2F780FF45
:1057100030C08091BD0690E0002E02C0959587951F
:105720000A94E2F780FF16C06091C8067091C9061E
:105730008091CA069091CB06AB89BC892D913D9191
:105740004D915C910E94C734F30160837183828321
:1057500093831AC08091C8069091C906A091CA0689
:10576000B091CB06B058F30180839183A283B383B9
:105770000BC08CE295E0602F0E94A732D3016D939D
:105780007D938D939C9313970F5F1F4FE4E0F0E0A0
:105790006E0E7F1E2B893C892C5F3F4F3C8B2B8BE1
:1057A0000330110509F0ABCF4091C2065091C306FA
:1057B0006091C4067091C506CE01079620E00E9454
:1057C000F724109228059FB7F89480912A058260EB
:1057D00080932A059FBF0E9425140E94561584E0DD
:1057E000809328056B960FB6F894DEBF0FBECDBF31
:1057F000CF91DF911F910F91FF90EF90DF90CF90AD
:10580000BF90AF909F908F907F906F905F904F90E0
:105810003F902F9008958F929F92AF92BF92CF9218
:10582000DF92EF92FF920F931F93DF93CF93CDB749
:10583000DEB72A970FB6F894DEBF0FBECDBF7B014F
:105840008C01A42E20E030E040E050E00E94A03522
:1058500088233CF48DE20E94591317FB109517F929
:105860001095DA2C0CC0C801B70120E030E048ECFC
:1058700052E40E94E9377B018C018EEFD80EE1E003
:10588000ED1588F3A0FE0AC0C801B70120E030E0A2
:1058900040E251E40E94E9377B018C01C801B70165
:1058A00020E030E040E05FE30E94C7340E940F3602
:1058B0006B017C019E012F5F3F4FF901EA0DF11D45
:1058C0008EE28083BB2449011EC0BA1409F4B3944C
:1058D00084010B0D111DC701B6012AE030E040E044
:1058E00050E00E94EE38605DF8016083B394C70118
:1058F000B6012AE030E040E050E00E94EE38C901F5
:10590000DA016C017D01C114D104E104F104E9F66E
:1059100006C0FC01EB0DF11D2083B39403C0CE0142
:10592000019620E3BA14A8F3BA1489F48B2D8F5F83
:10593000FE01E80FF11D90E39183B82EB39407C0E8
:10594000FE01EB0DF11D80810E945913BA94BB201A
:10595000B9F72A960FB6F894DEBF0FBECDBFCF9130
:10596000DF911F910F91FF90EF90DF90CF90BF904C
:10597000AF909F908F90089543E00E940B2C089564
:105980009B01AC018091BC0680FF0AC0CA01B9012D
:105990002BE832E441E25DE30E94E93741E003C0D5
:1059A000CA01B90140E00E940B2C08959B01AC0193
:1059B0008091BC0680FF0AC0CA01B9012BE832E41D
:1059C00041E25DE30E94E93744E003C0CA01B90146
:1059D00043E00E940B2C08951F93DF93CF9300D0D8
:1059E0000F92CDB7DEB7282F882321F480E30E94E1
:1059F00059131EC010E0AE014F5F5F4FFA01E10F77
:105A0000F11D822F6AE00E94E238905D90831F5F53
:105A1000822F0E94E238282F882381F707C0FE01D9
:105A2000E10FF11D80810E94591311501123B9F724
:105A30000F900F900F90CF91DF911F9108950F93CA
:105A40001F93DF93CF93CDB7DEB728970FB6F894A7
:105A5000DEBF0FBECDBF982FFE0131969E01275F9E
:105A60003F4F892F817081939695E217F307C9F70D
:105A70008E01085F1F4FF8018081805D0E945913DD
:105A8000015010400C171D07B1F728960FB6F89477
:105A9000DEBF0FBECDBFCF91DF911F910F91089553
:105AA000CF93DF93EC0102C00E945913FE012196AF
:105AB00084918823C9F7DF91CF910895CF93DF9325
:105AC000EC0103C021960E94591388818823D1F7E5
:105AD000DF91CF9108953D98459A0895982F10929F
